:020000040800F2
:1000000000000220910400088901000897010008FF
:100010009D010008A3010008A901000800000000DC
:10002000000000000000000000000000AF01000818
:10003000BD01000800000000CB010008D901000844
:10004000D5040008D5040008D5040008D50400082C
:10005000D5040008D5040008D5040008D50400081C
:10006000D5040008D5040008D5040008D50400080C
:10007000D5040008D5040008D5040008D5040008FC
:10008000D5040008D5040008D5040008D5040008EC
:10009000D5040008D5040008D5040008D5040008DC
:1000A000D5040008D5040008D5040008D5040008CC
:1000B000D5040008D5040008D5040008D5040008BC
:1000C000D5040008D5040008D5040008D5040008AC
:1000D000D5040008D5040008D5040008D50400089C
:1000E000D5040008D5040008D5040008D50400088C
:1000F000D5040008D5040008D5040008D50400087C
:10010000D5040008D5040008D5040008D50400086B
:10011000D5040008D5040008D5040008D50400085B
:10012000D5040008D5040008D5040008D50400084B
:10013000D5040008D5040008D5040008D50400083B
:10014000D5040008D5040008D5040008D50400082B
:10015000D5040008D5040008D5040008D50400081B
:10016000D5040008D5040008D5040008D50400080B
:10017000D5040008D5040008D5040008D5040008FB
:08018000D5040008D5040008B5
:1001880080B400AF00BFBD465DF8047B704780B403
:1001980000AFFEE780B400AFFEE780B400AFFEE733
:1001A80080B400AFFEE780B400AF00BFBD465DF885
:1001B800047B704780B400AF00BFBD465DF8047B88
:1001C800704780B400AF00BFBD465DF8047B704740
:1001D80080B400AF00BFBD465DF8047B70470000E7
:1001E80080B500AF164BD3F88830154A43F4700336
:1001F800C2F88830134B1B68124A43F0010313609E
:10020800104B00229A600F4B1B680E4A23F0847330
:1002180023F4803313600B4B0B4A5A60094B1B685D
:10022800084A23F480231360064B0022DA6000F0AA
:100238000DF8034B4FF000629A6000BF80BD00BF0D
:1002480000ED00E0003802401030002480B483B094
:1002580000AF00237B6000233B60364B1B68354AA8
:1002680043F480331360334B1B6803F400333B6063
:100278007B6801337B603B68002B03D17B68B3F557
:10028800A04FF0D12B4B1B6803F40033002B02D096
:1002980001233B6001E000233B603B68012B42D116
:1002A800244B1B6C234A43F080531364224B1B6876
:1002B800214A43F4404313601E4B1E4A9B689360D7
:1002C8001C4B9B681B4A43F400439360194B9B6883
:1002D800184A43F4A0539360164B184A5A60154BBA
:1002E8001B68144A43F08073136000BF114B1B68EE
:1002F80003F00073002BF9D0114B40F205721A601D
:100308000C4B9B680B4A23F003039360094B9B68D3
:10031800084A43F00203936000BF064B9B6803F052
:100328000C03082BF9D100BF0C37BD465DF8047BE0
:10033800704700BF00380240007000400854400772
:10034800003C024080B582B000AF0121012000F0DE
:10035800BFF84FF4E0633B6001233B710023BB719E
:1003680003237B710023FB713B461946034800F0C9
:10037800CFF800BF0837BD4680BD00BF000002406F
:1003880080B586B000AFFFF7DDFF3B4A3B1D07CACB
:1003980083E8070000237B617969384B83FB0132CE
:1003A800CB17D21A13465B001344CA1A930007F1FD
:1003B8001802134453F8143C9BB21946304800F015
:1003C80044F97B6901337B6179692C4B83FB0132EA
:1003D800CB17D21A13465B001344CA1A930007F1CD
:1003E8001802134453F8143C9BB21946244800F0F1
:1003F8001DF900233B6102E03B6901333B613B6926
:10040800204A9342F8DD79691C4B83FB0132CB17F4
:10041800D21A13465B001344CA1A930007F1180254
:10042800134453F8143C9BB21946154800F00DF9D3
:100438007B6901337B617969104B83FB0132CB17F0
:10044800D21A13465B001344CA1A930007F1180224
:10045800134453F8143C9BB21946094800F0E6F8D7
:1004680000233B6102E03B6901333B613B69054A7C
:100478009342F8DD90E700BF7006000856555555C1
:1004880000000240BFCF6A00002103E00A4B5B581E
:100498004350043109480A4B42189A42F6D3094A94
:1004A80002E0002342F8043B074B9A42F9D3FFF7D6
:1004B80097FEFFF765FF70477C06000800000020E4
:1004C800000000200000002000000020FEE70000DF
:1004D80080B483B000AF78600B46FB70FB78002BCC
:1004E80006D00A49094B1A6B7B6813430B6306E075
:1004F8000649064B1A6B7B68DB4313400B6300BF4E
:100508000C37BD465DF8047B704700BF00380240D9
:1005180080B487B000AF7860396000237B61002326
:100528003B610023FB6000237B6176E001227B694D
:1005380002FA03F33B613B681A683B691340FB60AE
:10054800FA683B699A4265D17B681A687B695B00E7
:10055800032101FA03F3DB431A407B681A607B68C6
:100568001A683B681B7919467B695B0001FA03F33B
:100578001A437B681A603B681B79012B03D03B68E0
:100588001B79022B2ED17B689A687B695B0003215B
:1005980001FA03F3DB431A407B689A607B689A6828
:1005A8003B685B7919467B695B0001FA03F31A43E0
:1005B8007B689A607B685A687B699BB219460123FD
:1005C8008B40DB431A407B685A607B685B683A68FB
:1005D800927911467A6992B201FA02F292B21A43FA
:1005E8007B685A607B68DA687B699BB25B00032191
:1005F80001FA03F3DB431A407B68DA607B68DA6848
:100608003B68DB7919467B695B0001FA03F31A43FF
:100618007B68DA607B6901337B617B690F2B85D945
:1006280000BF1C37BD465DF8047B704780B483B0BB
:1006380000AF78600B467B807B687A881A8300BF9E
:100648000C37BD465DF8047B704780B483B000AFBB
:1006580078600B467B807B687A885A8300BF0C37AA
:10066800BD465DF8047B7047FFFEFFFFFFFDFFFFFF
:04067800FFFBFFFF86
:040000050800018866
:00000001FF
