S00C00006D61696E2E7372656373
S3150800000000000220010F0008C50A0008D30A0008EC
S31508000010D90A0008DF0A0008E50A000800000000FF
S31508000020000000000000000000000000EB0A0008C5
S31508000030F90A000800000000070B0008150B000865
S31508000040450F0008450F0008450F0008450F000832
S31508000050450F0008450F0008450F0008450F000822
S31508000060450F0008450F0008450F0008450F000812
S31508000070450F0008450F0008450F0008450F000802
S31508000080450F0008450F0008450F0008450F0008F2
S31508000090450F0008450F0008450F0008450F0008E2
S315080000A0450F0008450F0008450F0008450F0008D2
S315080000B0F90D0008450F0008450F0008450F000810
S315080000C0450F0008450F0008450F0008450F0008B2
S315080000D0450F0008450F0008450F0008450F0008A2
S315080000E0450F0008450F0008450F0008450F000892
S315080000F0450F0008450F0008450F0008450F000882
S31508000100450F0008450F0008450F0008450F000871
S31508000110450F0008450F0008450F0008450F000861
S31508000120450F0008450F0008450F0008450F000851
S31508000130450F0008450F0008450F0008450F000841
S31508000140450F0008450F0008450F0008450F000831
S31508000150450F0008450F0008450F0008450F000821
S31508000160450F0008450F0008450F0008450F000811
S31508000170450F0008450F0008450F0008450F000801
S30D08000180450F0008450F0008B1
S3150800018881F0004102E000BF83F0004330B54FEA32
S3150800019841044FEA430594EA050F08BF90EA020F9F
S315080001A81FBF54EA000C55EA020C7FEA645C7FEA32
S315080001B8655C00F0E2804FEA5454D4EB5555B8BF55
S315080001C86D420CDD2C4480EA020281EA030382EAC6
S315080001D8000083EA010180EA020281EA0303362D58
S315080001E888BF30BD11F0004F4FEA01314FF4801C2B
S315080001F84CEA113102D0404261EB410113F0004F3D
S315080002084FEA03334CEA133302D0524263EB4303F3
S3150800021894EA050F00F0A780A4F10104D5F1200E91
S315080002280DDB02FA0EFC22FA05F2801841F10001EC
S3150800023803FA0EF2801843FA05F359410EE0A5F1C0
S3150800024820050EF1200E012A03FA0EFC28BF4CF0F1
S31508000258020C43FA05F3C01851EBE37101F00045A7
S3150800026807D54FF0000EDCF1000C7EEB00006EEBB4
S315080002780101B1F5801F1BD3B1F5001F0CD349083E
S315080002885FEA30004FEA3C0C04F101044FEA445295
S3150800029812F5800F80F09A80BCF1004F08BF5FEA1C
S315080002A8500C50F1000041EB045141EA050130BDFC
S315080002B85FEA4C0C404141EB010111F4801FA4F19F
S315080002C80104E9D191F0000F04BF01460020B1FAF4
S315080002D881F308BF2033A3F10B03B3F120020CDA2C
S315080002E80C3208DD02F1140CC2F10C0201FA0CF00A
S315080002F821FA02F10CE002F11402D8BFC2F1200C6F
S3150800030801FA02F120FA0CFCDCBF41EA0C01904024
S31508000318E41AA2BF01EB0451294330BD6FEA04046D
S315080003281F3C1CDA0C340EDC04F11404C4F1200258
S3150800033820FA04F001FA02F340EA030021FA04F36A
S3150800034845EA030130BDC4F10C04C4F1200220FAC1
S3150800035802F001FA04F340EA0300294630BD21FAFF
S3150800036804F0294630BD94F0000F83F4801306BFC5
S3150800037881F480110134013D4EE77FEA645C18BFB9
S315080003887FEA655C29D094EA050F08BF90EA020F50
S3150800039805D054EA000C04BF1946104630BD91EA48
S315080003A8030F1EBF0021002030BD5FEA545C05D14B
S315080003B84000494128BF41F0004130BD14F580048A
S315080003C83CBF01F5801130BD01F0004545F0FE41FE
S315080003D841F470014FF0000030BD7FEA645C1ABF33
S315080003E8194610467FEA655C1CBF0B46024650EA6A
S315080003F8013406BF52EA033591EA030F41F4002196
S3150800040830BD00BF90F0000F04BF0021704730B51B
S315080004184FF4806404F132044FF000054FF00001F0
S3150800042850E700BF90F0000F04BF0021704730B5B1
S315080004384FF4806404F1320410F0004548BF404286
S315080004484FF000013EE700BF42004FEAE2014FEADB
S3150800045831014FEA02701FBF12F07F4393F07F4FB6
S3150800046881F06051704732F07F4208BF704793F0B9
S315080004787F4F04BF41F40021704730B54FF46074CC
S3150800048801F0004521F000411CE700BF50EA0102CF
S3150800049808BF704730B54FF000050AE050EA010278
S315080004A808BF704730B511F0004502D5404261EBE8
S315080004B841014FF4806404F132045FEA915C3FF429
S315080004C8D8AE4FF003025FEADC0C18BF03325FEAC6
S315080004D8DC0C18BF033202EBDC02C2F1200300FA77
S315080004E803FC20FA02F001FA03FE40EA0E0021FA9C
S315080004F802F11444BDE600BF70B54FF0FF0C4CF48A
S31508000508E06C1CEA11541DBF1CEA135594EA0C0F3B
S3150800051895EA0C0F00F0DEF82C4481EA030621EA76
S315080005284C5123EA4C5350EA013518BF52EA0335B1
S3150800053841F4801143F4801338D0A0FB02CE4FF063
S315080005480005E1FB02E506F00042E0FB03E54FF093
S315080005580006E1FB03569CF0000F18BF4EF0010E8B
S31508000568A4F1FF04B6F5007F64F5407404D25FEA87
S315080005784E0E6D4146EB060642EAC62141EA55513A
S315080005884FEAC52040EA5E504FEACE2EB4F1FD0C7C
S3150800059888BFBCF5E06F1ED8BEF1004F08BF5FEAFA
S315080005A8500E50F1000041EB045170BD06F00046AC
S315080005B846EA010140EA020081EA0301B4EB5C0459
S315080005C8C2BFD4EB0C0541EA045170BD41F4801151
S315080005D84FF0000E013C00F3AB8014F1360FDEBF76
S315080005E8002001F0004170BDC4F10004203C35DA52
S315080005F80C341BDC04F11404C4F1200500FA05F3D5
S3150800060820FA04F001FA05F240EA020001F0004275
S3150800061821F0004110EBD37021FA04F642EB0601EB
S315080006285EEA430E08BF20EAD37070BDC4F10C0415
S31508000638C4F1200500FA04F320FA05F001FA04F2D9
S3150800064840EA020001F0004110EBD37041F10001C5
S315080006585EEA430E08BF20EAD37070BDC4F12005D0
S3150800066800FA05F24EEA020E20FA04F301FA05F238
S3150800067843EA020321FA04F001F0004121FA04F2E0
S3150800068820EA020000EBD3705EEA430E08BF20EAB0
S31508000698D37070BD94F0000F0FD101F000464000EA
S315080006A841EB010111F4801F08BF013CF7D041EA6C
S315080006B8060195F0000F18BF704703F00046520070
S315080006C843EB030313F4801F08BF013DF7D043EA41
S315080006D80603704794EA0C0F0CEA135518BF95EAF7
S315080006E80C0F0CD050EA410618BF52EA4306D1D17E
S315080006F881EA030101F000414FF0000070BD50EA9D
S31508000708410606BF1046194652EA430619D094EA26
S315080007180C0F02D150EA013613D195EA0C0F05D110
S3150800072852EA03361CBF104619460AD181EA030164
S3150800073801F0004141F0FE4141F470014FF000001C
S3150800074870BD41F0FE4141F4780170BD70B54FF0B7
S31508000758FF0C4CF4E06C1CEA11541DBF1CEA135537
S3150800076894EA0C0F95EA0C0F00F0A7F8A4EB050419
S3150800077881EA030E52EA03354FEA013100F0888010
S315080007884FEA03334FF0805545EA131343EA1263D9
S315080007984FEA022245EA111545EA10654FEA00268E
S315080007A80EF000419D4208BF964244F1FD0404F547
S315080007B8407402D25B084FEA3202B61A65EB0305A3
S315080007C85B084FEA32024FF480104FF4002CB6EB60
S315080007D8020E75EB030E22BFB61A754640EA0C00E0
S315080007E85B084FEA3202B6EB020E75EB030E22BF20
S315080007F8B61A754640EA5C005B084FEA3202B6EB61
S31508000808020E75EB030E22BFB61A754640EA9C001F
S315080008185B084FEA3202B6EB020E75EB030E22BFEF
S31508000828B61A754640EADC0055EA060E18D04FEAAD
S31508000838051545EA16754FEA06164FEAC30343EA4D
S3150800084852734FEAC2025FEA1C1CC0D111F4801F1A
S315080008580BD141EA00014FF000004FF0004CB6E713
S3150800086811F4801F04BF01430020B4F1FD0C88BFB2
S31508000878BCF5E06F3FF6AFAEB5EB030C04BFB6EBBD
S31508000888020C5FEA500C50F1000041EB045170BDB0
S315080008980EF0004E4EEA113114EB5C04C2BFD4EBDD
S315080008A80C0541EA045170BD41F480114FF0000E61
S315080008B8013C90E645EA060E8DE60CEA135594EADD
S315080008C80C0F08BF95EA0C0F3FF43BAF94EA0C0FE0
S315080008D80AD150EA01347FF434AF95EA0C0F7FF455
S315080008E825AF104619462CE795EA0C0F06D152EAA9
S315080008F803353FF4FDAE1046194622E750EA41068D
S3150800090818BF52EA43067FF4C5AE50EA41047FF49D
S315080009180DAF52EA43057FF4EBAE12E74A0011D24F
S3150800092812F5001211D20DD56FF47873B3EB625233
S315080009380ED44FEAC12343F0004343EA505323FA3F
S3150800094802F070474FF00000704750EA013002D1B4
S315080009584FF0FF3070474FF0000070474FF0FF3CEC
S3150800096806E000BF4FF0010C02E000BF4FF0010C93
S315080009784DF804CD4FEA410C7FEA6C5C4FEA430C0C
S3150800098818BF7FEA6C5C1BD001B050EA410C0CBF5B
S3150800099852EA430C91EA030F02BF90EA020F0020BD
S315080009A8704710F1000F91EA030F58BF994208BF24
S315080009B890422CBFD8176FEAE37040F001007047E1
S315080009C84FEA410C7FEA6C5C02D150EA013C07D138
S315080009D84FEA430C7FEA6C5CD6D152EA033CD3D083
S315080009E85DF8040B704700BF8446104662468C467D
S315080009F81946634600E000BF01B5FFF7B7FF0028B0
S31508000A0848BF10F1000F01BD4DF808EDFFF7F4FFD8
S31508000A180CBF012000205DF808FB00BF4DF808ED63
S31508000A28FFF7EAFF34BF012000205DF808FB00BF86
S31508000A384DF808EDFFF7E0FF94BF012000205DF8A8
S31508000A4808FB00BF4DF808EDFFF7CEFF94BF01205D
S31508000A5800205DF808FB00BF4DF808EDFFF7C4FF56
S31508000A6834BF012000205DF808FB00BF4FEA4102A9
S31508000A7812F5001215D211D56FF47873B3EB6252DA
S31508000A8812D94FEAC12343F0004343EA505311F001
S31508000A98004F23FA02F018BF404270474FF0000093
S31508000AA8704750EA013005D111F0004008BF6FF0D1
S31508000AB8004070474FF00000704700BF80B400AF91
S31508000AC800BFBD465DF8047B704780B400AFFEE7FB
S31508000AD880B400AFFEE780B400AFFEE780B400AF8D
S31508000AE8FEE780B400AF00BFBD465DF8047B7047DB
S31508000AF880B400AF00BFBD465DF8047B704780B47C
S31508000B0800AF00BFBD465DF8047B704780B400AFF0
S31508000B1800BFBD465DF8047B7047000080B500AF8E
S31508000B28164BD3F88830154A43F47003C2F8883050
S31508000B38134B1B68124A43F001031360104B00223B
S31508000B489A600F4B1B680E4A23F0847323F480338C
S31508000B5813600B4B0B4A5A60094B1B68084A23F467
S31508000B6880231360064B0022DA6000F00DF8034B69
S31508000B784FF000629A6000BF80BD00BF00ED00E03C
S31508000B88003802401030002480B483B000AF002338
S31508000B987B6000233B60364B1B68354A43F4803339
S31508000BA81360334B1B6803F400333B607B680133DF
S31508000BB87B603B68002B03D17B68B3F5A04FF0D167
S31508000BC82B4B1B6803F40033002B02D001233B6030
S31508000BD801E000233B603B68012B42D1244B1B6C88
S31508000BE8234A43F080531364224B1B68214A43F473
S31508000BF8404313601E4B1E4A9B6893601C4B9B68B8
S31508000C081B4A43F400439360194B9B68184A43F4FC
S31508000C18A0539360164B184A5A60154B1B68144A1A
S31508000C2843F08073136000BF114B1B6803F0007311
S31508000C38002BF9D0114B40F205721A600C4B9B68D1
S31508000C480B4A23F003039360094B9B68084A43F051
S31508000C580203936000BF064B9B6803F00C03082B3E
S31508000C68F9D100BF0C37BD465DF8047B704700BF55
S31508000C78003802400070004008544007003C024013
S31508000C8880B582B000AF3B46184600F09AFC0122B0
S31508000C984FF480710D4800F0AEFC0121012000F0E8
S31508000CA8B1F94FF480733B6001233B710023BB7194
S31508000CB803237B710023FB713B461946034800F062
S31508000CC8F2FB002318460837BD4680BD00000240DF
S31508000CD880B584B000AF3B1D184600F05FFA0121C5
S31508000CE8012000F0CFF94FF4D263BB800023FB80C4
S31508000CF840F2CF73BB600023BB810023BB733B1D47
S31508000D081946124800F0DEF93B1D184600F046FA67
S31508000D180121012000F096F93223BB806423BB60C9
S31508000D280023BB810023BB73012201214FF08040B9
S31508000D3800F05AFB3B1D19464FF0804000F0C2F9F7
S31508000D48002318461037BD4680BD00BF0000014085
S31508000D5880B582B000AF1C233B7100237B71012349
S31508000D68BB710123FB713B1D184600F0E9F8002307
S31508000D7818460837BD4680BD80B586B000AF3B1D0E
S31508000D88184600F0BFFA6023BB800023FB600123E6
S31508000D98FB8002233B823B1D1946084800F038FAB7
S31508000DA80821064800F0DEFA0121044800F0F6FAA0
S31508000DB8002318461837BD4680BD00BF000001400D
S31508000DC880B500AF074B00221A600121064800F0DB
S31508000DD8FFF901214FF0804000F0FAF900BF1846E4
S31508000DE880BD00BF00000020000001400000000090
S31508000DF8B0B582B000AF01214FF0804000F018FB73
S31508000E080346002B55D001214FF0804000F03AFBED
S31508000E182F4B1B6801332E4A13604FF4FA63FB8085
S31508000E282B4B1B681846FFF7EDFA25A3D3E90023D1
S31508000E38FFF762FB03460C4625461C46FB88184600
S31508000E48FFF7F0FA02460B4620462946FFF77EFCCE
S31508000E5803460C4644EC173BB0EE470AF0EE670A21
S31508000E6800F012FC51EC100B4FF00002194BFFF77B
S31508000E788DF903460C46184621464FF000024FF0F6
S31508000E888043FFF763FC03460C46184621460EA323
S31508000E98D3E90023FFF730FB03460C4618462146DC
S31508000EA8FFF73CFD0346BB80BB8819460A4800F095
S31508000EB84BFA00BF0837BD46B0BD00BFAFF3008088
S31508000EC81F85EB51B81E194000000000003C9F40E2
S31508000ED8000000200000F03F0000014080B500AF88
S31508000EE8FFF7F6FEFFF734FFFFF746FFFFF7C8FEE2
S31508000EF8FFF766FFFEE70000002103E00A4B5B5890
S31508000F084350043109480A4B42189A42F6D3094A0B
S31508000F1802E0002342F8043B074B9A42F9D3FFF74D
S31508000F28FDFDFFF7DBFF7047602C00080000002076
S31508000F38000000200000002000000020FEE7000056
S31508000F4880B485B000AF78600023FB730023BB73B9
S31508000F580F237B737B68DB78002B39D0274BDB683C
S31508000F68DB431B0ADBB203F00703FB73FB7BC3F106
S31508000F780403BB737A7BFB7B42FA03F37B737B68B8
S31508000F885B781A46BB7B02FA03F3FB737B689A788D
S31508000F987B7B1340DAB2FB7B1343FB73FB7B1B019A
S31508000FA8FB73174A7B681B781344FA7B83F800237C
S31508000FB8134A7B681B785B09DBB218467B681B7883
S31508000FC803F01F03012101FA03F342F820300FE06A
S31508000FD80B497B681B785B09DBB218467B681B786C
S31508000FE803F01F0301229A4000F1200341F8232049
S31508000FF800BF1437BD465DF8047B704700ED00E076
S3150800100800E100E080B483B000AF78600B46FB705F
S31508001018FB78002B06D00A49094B1A6B7B681343E1
S315080010280B6306E00649064B1A6B7B68DB431340DD
S315080010380B6300BF0C37BD465DF8047B704700BFDD
S315080010480038024080B483B000AF78600B46FB7066
S31508001058FB78002B06D00A49094B1A6C7B681343A0
S315080010680B6406E00649064B1A6C7B68DB4313409B
S315080010780B6400BF0C37BD465DF8047B704700BF9C
S315080010880038024080B483B000AF78600B46FB7026
S31508001098FB78002B06D00A49094B5A6C7B68134320
S315080010A84B6406E00649064B5A6C7B68DB431340DB
S315080010B84B6400BF0C37BD465DF8047B704700BF1C
S315080010C80038024080B485B000AF786039600023E4
S315080010D8FB817B681B88FB817B68294A934213D06E
S315080010E87B68284A93420FD07B68B3F1804F0BD0B0
S315080010F87B68254A934207D07B68244A934203D0E3
S315080011087B68234A934208D1FB8923F07003FB8145
S315080011183B685A88FB891343FB817B681D4A9342BF
S315080011280CD07B681C4A934208D0FB8923F4407389
S31508001138FB813B681A89FB891343FB817B68FA891B
S315080011481A803B685A687B68DA623B681A887B6843
S315080011581A857B680A4A934203D07B68094A9342F0
S3150800116804D13B689B7A9AB27B681A867B68012207
S315080011789A8200BF1437BD465DF8047B704700BFE6
S315080011880000014000040140000400400008004037
S31508001198000C0040001000400014004080B483B0E2
S315080011A800AF78607B684FF0FF325A607B68002290
S315080011B81A807B6800221A817B6800225A807B681D
S315080011C800229A7200BF0C37BD465DF8047B70474B
S315080011D880B483B000AF78600B46FB70FB78002BB1
S315080011E808D07B681B889BB243F001039AB27B68D8
S315080011F81A8007E07B681B889BB223F001039AB222
S315080012087B681A8000BF0C37BD465DF8047B7047BB
S3150800121880B485B000AF7860396000237B810023ED
S31508001228FB810023BB817B681B8C9BB223F00103DF
S315080012389AB27B681A847B681B8CFB817B689B88BF
S31508001248BB817B681B8B7B817B8923F070037B8141
S315080012587B8923F003037B813B681A887B891343C0
S315080012687B81FB8923F00203FB813B689A89FB890A
S315080012781343FB813B685A88FB891343FB817B68C8
S315080012881E4A934203D07B681D4A934223D1FB89A1
S3150800129823F00803FB813B68DA89FB891343FB8142
S315080012A8FB8923F00403FB813B689A88FB8913436F
S315080012B8FB81BB8923F48073BB81BB8923F4007344
S315080012C8BB813B681A8ABB891343BB813B685A8A28
S315080012D8BB891343BB817B68BA899A807B687A89FC
S315080012E81A833B689A687B685A637B68FA891A8402
S315080012F800BF1437BD465DF8047B704700000140FF
S315080013080004014080B483B000AF78607B6800228F
S315080013181A807B6800225A807B6800229A807B683C
S3150800132800229A607B6800229A817B680022DA810B
S315080013387B6800221A827B6800225A8200BF0C3713
S31508001348BD465DF8047B704780B483B000AF78600B
S3150800135839607B683A685A6300BF0C37BD465DF842
S31508001368047B704780B485B000AF78600B467B80F5
S315080013780023FB817B681B8BFB81FB8923F0080311
S31508001388FB81FA897B881343FB817B68FA891A8370
S3150800139800BF1437BD465DF8047B704780B483B038
S315080013A800AF78600B46FB70FB78002B0CD07B6887
S315080013B8B3F844309BB26FEA43436FEA53439AB291
S315080013C87B68A3F8442009E07B68B3F844309BB2ED
S315080013D8C3F30E039AB27B68A3F8442000BF0C3700
S315080013E8BD465DF8047B704780B483B000AF78606B
S315080013F80B467B8013467B707B78002B08D07B686E
S315080014089B899AB27B8813439AB27B689A8109E0CA
S315080014187B689B899AB27B88DB439BB213409AB256
S315080014287B689A8100BF0C37BD465DF8047B704718
S3150800143880B485B000AF78600B467B800023FB73C9
S315080014480023BB8100237B817B681B8A9AB27B8831
S315080014581340BB817B689B899AB27B8813407B8142
S31508001468BB89002B05D07B89002B02D00123FB738F
S3150800147801E00023FB73FB7B18461437BD465DF86D
S31508001488047B704780B483B000AF78600B467B80D6
S315080014987B88DB439AB27B681A8200BF0C37BD4645
S315080014A85DF8047B704780B487B000AF7860396010
S315080014B800237B6100233B610023FB6000237B61DB
S315080014C876E001227B6902FA03F33B613B681A68F6
S315080014D83B691340FB60FA683B699A4265D17B68A9
S315080014E81A687B695B00032101FA03F3DB431A4098
S315080014F87B681A607B681A683B681B7919467B699A
S315080015085B0001FA03F31A437B681A603B681B7988
S31508001518012B03D03B681B79022B2ED17B689A686E
S315080015287B695B00032101FA03F3DB431A407B68F6
S315080015389A607B689A683B685B7919467B695B00A1
S3150800154801FA03F31A437B689A607B685A687B69D1
S315080015589BB2194601238B40DB431A407B685A60C5
S315080015687B685B683A68927911467A6992B201FA99
S3150800157802F292B21A437B685A607B68DA687B691A
S315080015889BB25B00032101FA03F3DB431A407B682D
S31508001598DA607B68DA683B68DB7919467B695B0041
S315080015A801FA03F31A437B68DA607B6901337B61C6
S315080015B87B690F2B85D900BF1C37BD465DF8047BB0
S315080015C8704780B483B000AF78607B684FF6FF72C7
S315080015D81A607B6800221A717B6800225A717B6838
S315080015E800229A717B680022DA7100BF0C37BD4663
S315080015F85DF8047B704780B485B000AF78600B4609
S315080016087B8013467B700023FB600023BB607A78D7
S315080016187B8803F007039B0002FA03F3FB607B88C9
S31508001628DB089BB218467B88DB089BB21A467B68A0
S31508001638083253F822207B8803F007039B000F2102
S3150800164801FA03F3DB4302EA03017B6800F10802A7
S3150800165843F822107B88DB089BB21A467B68083257
S3150800166853F82220FB681343BB607B88DB089BB2D0
S315080016781A467B680832B96843F8221000BF14373F
S31508001688BD465DF8047B704700B551EC100B2C4A33
S3150800169821F00043934285B020DD2A4A934209DDAA
S315080016A810EE102A0B46FEF76FFD41EC100B05B03D
S315080016B85DF804FB684600F047F800F003000128C7
S315080016C828D0022815D060B301209DED021B9DED98
S315080016D8000B00F0DDFF51EC100BE6E79FED161B3B
S315080016E800F05AFA51EC100B41EC100B05B05DF8F6
S315080016F804FB9DED021B9DED000B00F04DFA53EC23
S31508001708102B10EE100A03F1004141EC100B05B03E
S315080017185DF804FB9DED021B9DED000B00F0B8FF7C
S31508001728EDE79DED021B9DED000B00F035FA51EC37
S31508001738100BBAE7AFF300800000000000000000B5
S31508001748FB21E93FFFFFEF7F2DE9F04753EC102B0C
S315080017589D4923F000478F4290B040F391809B49FA
S315080017688F421C46824629DC002C194610EE100AC0
S315080017788BA3D3E9002340F3B181FEF705FD944B0B
S315080017889F4204460D4600F0918087A3D3E90023BB
S31508001798FEF7FAFC02460B46CAE900232046294604
S315080017A8FEF7F2FC80A3D3E90023FEF7EDFC01253A
S315080017B8CAE90201284610B0BDE8F08785498F4274
S315080017C840F3918084498F4265DC3D15A5F216459C
S315080017D8A7EB0551104616460F46FFF747F9FEF7D9
S315080017E821FE8046894642464B4630463946CDE96B
S315080017F80A89FEF7C9FC0022784BFEF77DFE894662
S315080018088046FFF733F9FEF70DFE06460F463246C1
S315080018183B4640464946CDE90C67FEF7B5FC00222B
S315080018286E4BFEF769FE00220023CDE90E01FFF78D
S31508001838EBF8002800F0708100233046394600226C
S31508001848FFF7E2F8002814BF01230223644A01922D
S3150800185802212A4600910AA8514600F0E1FA002C0E
S31508001868054614DADAF80420DAF80C3002F10042F0
S3150800187803F100434542CAF80420CAF80C3006E0CA
S3150800188880ED000B00250024C0E9024500252846FE
S3150800189810B0BDE8F08710EE100A1946FEF774FC7A
S315080018A80025CAE90201CAE90001F0E740A3D3E91D
S315080018B80023FEF769FC40A3D3E900230D46044636
S315080018C8FEF762FC02460B46CAE90023294620466B
S315080018D8FEF75AFC38A3D3E90023FEF755FC012581
S315080018E8CAE90201D3E700F09DFF59EC108B10EE08
S315080018F8100A33A3D3E900234946FEF7FDFD002263
S31508001908384BFEF743FCFFF7B1F80546FEF78AFDA4
S3150800191823A3D3E90023CDE90601FEF7EDFD024628
S315080019280B4640464946FEF72FFC1FA3D3E900237A
S31508001938CDE90201DDE90601FEF7DEFD1F2D804629
S315080019488946CDE9048951DC274B6A1E53F82230AB
S315080019589F424BD002460B46DDE90201FEF714FC0E
S3150800196880468946CAE9008942464B46DDE90201AE
S31508001978FEF70AFCDDE90423FEF706FC002CCAE993
S31508001988020184DA09F1004401F100436D42CAF8FC
S315080019980080CAF80440CAF80800CAF80C3076E786
S315080019A800004054FB21F93F3163621A61B4D03D07
S315080019B80000601A61B4D03D7370032E8A19A33BE0
S315080019C883C8C96D305FE43FFB21E93F7BD90240F4
S315080019D8FB21F93FFB213941FFFFEF7F00007041EA
S315080019E8082B00080000E03F882A0008DDE90423E0
S315080019F8DDE90201FEF7C8FB3F15C1F30A53FB1AD6
S31508001A0880468946102BCAE90089ADDD58A3D3E973
S31508001A180023DDE90601FEF76FFD80468946024682
S31508001A280B46DDE90201FEF7AFFB02460B46DDE988
S31508001A380201CDE90823FEF7A7FB42464B46FEF707
S31508001A48A3FB4DA3D3E9002380468946DDE90601B1
S31508001A58FEF752FD42464B46FEF796FB0B46CDE986
S31508001A6804010246DDE90801FEF78EFBC1F30A53B5
S31508001A78FF1A80468946312FCAE900896CDD41A3D9
S31508001A88D3E90023DDE90601FEF736FDDDE9088915
S31508001A9806460F4602460B4640464946FEF774FB7D
S31508001AA802460B4640464946CDE90223FEF76CFB3B
S31508001AB832463B46FEF768FB34A3D3E900230646BD
S31508001AC80F46DDE90601FEF717FD32463B46FEF7E7
S31508001AD85BFB02460B46CDE904233DE7FEF756FBBA
S31508001AE8274B9F4204460D4618D01FA3D3E9002367
S31508001AF8FEF74CFB02460B46CAE900232946204650
S31508001B08FEF742FB18A3D3E90023FEF73FFB4FF085
S31508001B18FF35CAE90201BAE6032397E614A3D3E90F
S31508001B280023FEF733FB14A3D3E900230D46044626
S31508001B38FEF72CFB02460B46CAE90023294620462F
S31508001B48FEF722FB0CA3D3E90023FEF71FFB4FF091
S31508001B58FF35CAE902019AE69DED087B8DED027B01
S31508001B6802E700BFAFF300803163621A61B4D03D63
S31508001B780000601A61B4D03D7370032E8A19A33B1E
S31508001B88FB21F93F0000002E8A19A33BC1492025ED
S31508001B989A837B39000000002DE9F04F57EC106B4B
S31508001BA82DED028BB0EE418AF0EE618A27F00049E6
S31508001BB8B9F1795F83B072DA10EE100A3946FEF782
S31508001BC855FF002800F0F68032463B46304639462F
S31508001BD8FEF792FC7CA3D3E9002304460D46FEF7DC
S31508001BE88BFC7BA3D3E90023FEF7D0FA22462B46C3
S31508001BF8FEF782FC78A3D3E90023FEF7C5FA224646
S31508001C082B46FEF779FC76A3D3E90023FEF7BEFA3E
S31508001C1822462B46FEF770FC73A3D3E90023FEF78A
S31508001C28B3FA22462B46FEF767FC71A3D3E90023CD
S31508001C38FEF7ACFA22462B46FEF75EFC82468B4632
S31508001C480022714B20462946FEF756FC5246804626
S31508001C5889465B4620462946FEF74EFC53EC182B68
S31508001C6804460D4630463946FEF746FC02460B46FC
S31508001C7820462946FEF788FA02460B464046494654
S31508001C88FEF782FA02460B4600206049FEF77CFA00
S31508001C9841EC100B03B0BDEC028BBDE8F08F10EEDB
S31508001CA8102A10EE100A3B463946FEF725FC46A3CD
S31508001CB8D3E9002304460D46FEF71EFC44A3D3E9E0
S31508001CC80023FEF763FA22462B46FEF715FC42A3C5
S31508001CD8D3E90023FEF758FA22462B46FEF70CFCF2
S31508001CE83FA3D3E90023FEF751FA22462B46FEF70F
S31508001CF803FC3DA3D3E90023FEF746FA22462B4602
S31508001D08FEF7FAFB3AA3D3E90023FEF73FFA2B4678
S31508001D182246FEF7F1FB3E4B994582468B468FDDF8
S31508001D283C4B99453DDC0022A9F5001300203749AC
S31508001D3890469946FEF728FACDE900010022324B6B
S31508001D4820462946FEF7D8FB42464B46FEF71CFABC
S31508001D585246804689465B4620462946FEF7CCFB0E
S31508001D6853EC182B04460D4630463946FEF7C4FB95
S31508001D7802460B4620462946FEF706FA02460B4651
S31508001D8840464946FEF700FA02460B46DDE90001D9
S31508001D98FEF7FAF941EC100B03B0BDEC028BBDE86F
S31508001DA8F08F9FED157B4FF000088DED007BDFF86F
S31508001DB86890C3E79FED120B03B0BDEC028BBDE834
S31508001DC8F08F00BFAFF30080D43888BEE9FAA8BD03
S31508001DD8C4B1B4BD9EEE213EAD529C804F7E923E64
S31508001DE89015CB19A001FA3E7751C1166CC1563F1A
S31508001DF84C5555555555A53F000000000000E73FCE
S31508001E08000000000000F03F0000E03F0000F03F3F
S31508001E183233D33F0000E93F0000D23F00000000FC
S31508001E282DE9F04FADF51B7DA34CA49EA34D54F8A0
S31508001E38264007942646D41E85FB0475E417C4EB8A
S31508001E48A50424EAE4741D460A93631CA3EB8303DA
S31508001E58013D02EBC30306932B460B940395651BBA
S31508001E68F418049008911AD42C4400260027013443
S31508001E780DF18808DDF8949208E059F82500FEF770
S31508001E88D1FA0135A542E8E8020108D0002DF4DAAE
S31508001E98013530463946A542E8E80201F6D1079BDE
S31508001EA8002BC0F2EB83079B03F1010B0A9B22A9BF
S31508001EB8DB001A4601EB03090093049B0DF5E47A47
S31508001EC819460AEBCB0B01EB0208039B002BC0F261
S31508001ED80183049C4D460026002775E90223F4E889
S31508001EE80201FEF709FB02460B4630463946FEF75D
S31508001EF84DF9444506460F46EFD1EAE80267DA4542
S31508001F0809F10809E1D107990098049C009101F1A3
S31508001F188043013B9B0020441A1F83460EA80244AF
S31508001F2803440C920D93009A9AA901EBC203002A5E
S31508001F3853E9284529DD0DF5E47A0AEBC2080DF1BF
S31508001F48340900225E4B20462946FEF7D5FAFEF7E5
S31508001F588DFDFEF767FA00225A4B06460F46FEF72E
S31508001F68CBFA02460B4620462946FEF70DF9FEF738
S31508001F787DFD78E9022349F8040F39463046FEF70D
S31508001F8805F9D04504460D46DBD1DDF8189045EC31
S31508001F98104B484600F0E0FC55EC104B00224FF079
S31508001FA87F5310EE100A2946FEF7A6FA41EC100BE5
S31508001FB800F042FC002251EC100B434BFEF79CFA4A
S31508001FC802460B4620462946FEF7DEF80D46044625
S31508001FD8FEF74CFD8046FEF725FA0B4602462946CB
S31508001FE82046FEF7D1F84B46002B06460F4640F327
S31508001FF8FA80009A0EA9013AC9F1180351F8225035
S3150800200845FA03F101FA03F30EA8EB1A40F8223051
S31508002018C9F11705884443FA05F5002D6EDD009BBE
S31508002028002B08F1010840F374820E9C002C40F03E
S315080020381B83009B012B40F394820EAA012352F8B6
S31508002048044F002C00F08882581C0EAAC4F180742C
S3150800205842F82340009A824219DD0EAA0EAC52F8BD
S3150800206820106FF07F42511A44F820100099023365
S3150800207899420CDD1046009A0EA901EB830301EB81
S3150800208882011A68821A43F8042B8B42F9D1069BF7
S31508002098002B1BDD069B012B4FF0010440F0418203
S315080020A8009B5A1E0EAB0EA953F82230C3F316032B
S315080020B841F8223041E200BF502C0008ABAAAA2AF0
S315080020C80000703E0000704100002040022D15D126
S315080020D832463B4600209449FEF756F806460F4610
S315080020E806989FED8D0B00F037FC3046394653ECC1
S315080020F8102BFEF749F8022506460F46002200234C
S3150800210830463946FEF780FC002800F03B82009AE4
S31508002118079B501E83420FDC02F18043013B0EAA3F
S315080021280D9C02EB8303002253F80419A34242EAE2
S315080021380102F9D1002A67D1079B0EAA013B52F87A
S315080021482330002B40F01C820C9A012352F80419FC
S3150800215801330029FAD0009AD31802F1010A9A45E0
S3150800216809933DDC009B0A990B9A0B4409990AEBDB
S315080021780208994622AB08F1804803EBC9098B186F
S31508002188A59A08F1FF3802EB880872AA02EBCA0A70
S31508002198A59A02EB8303009358F8040FFEF742F951
S315080021A8039B002BE9E802014FF000064FF00007F1
S315080021B811DB049C4D4675E90223F4E80201FEF793
S315080021C89BF902460B4630463946FDF7DFFF5C4564
S315080021D806460F46EFD1009B9845EAE80267DBD129
S315080021E8099B00939FE606D1009B0EAA013B52F86D
S315080021F82350ED1511E700224C4BFEF723FC002867
S3150800220840F07281054679E70EA9039551F8203002
S315080022180699CDF8248018390246009006916BB9BC
S3150800222800F18043013B0EA800EB830353F8040929
S31508002238013A18390028F9D00092069106989FEDB8
S31508002248360B00F089FB009B002B55EC104BC0F2AF
S31508002258FC81DA0072A901EB020B06920EAA02EBC0
S315080022688306DFF8CC904FF000080BF10807043610
S3150800227856F8040DFEF7D6F822462B46FEF73CF923
S315080022884B4667E90201424620462946FEF734F9D5
S315080022980EAB9E4204460D46EAD14AACDDF81C90C0
S315080022A804944FF0000AB9F1000FC0F22F81DFF845
S315080022B884805D461AA1D1E900010026002700247A
S315080022C803E0544510DCF8E80201F5E80223FEF7B6
S315080022D813F902460B4630463946FDF757FF0134CF
S315080022E8A14506460F46ECDA049B03EBCA03ABF195
S315080022F8080BC3E9006770AB9B450AF1010AD2D1FE
S31508002308A49B049C032B00F28D80DFE813F0C90018
S3150800231892009200150000BF000000000000F03F80
S3150800232800000040FB21F93F0000F03F0000E03FB5
S315080023380000703E182C0008009B002B40F3828191
S31508002348069A04EB020ADAE9008902F10805254427
S315080023580DF5987B1AED027B42464B4651EC170B56
S315080023688DED047BFDF712FF06460F4602460B461F
S31508002378DDE90401FDF708FF42464B46FDF706FF6F
S3150800238865E902015D45B046B9466AE90267E1D1E1
S31508002398009B012B40F35681069BE518D5E9008971
S315080023A803F1080B04EB0B0A15ED027B42464B4674
S315080023B851EC170B8DED007BFDF7E8FE06460F4638
S315080023C802460B46DDE90001FDF7DEFE4B464246AE
S315080023D8FDF7DCFE6AE902014EAB5345B046B9463D
S315080023E865E90267E0D10020002104EB0B0575E9D1
S315080023F80223FDF7CBFEAA45F9D1039B002B00F073
S315080024080B816268E368089F2568A4683D6002F145
S31508002418004203F1004301F100417A60FB60BC60A9
S3150800242838617961099B03F007000DF51B7DBDE846
S31508002438F08F069D083525440020002175E90223FA
S31508002448FDF7A4FEA542F9D1039B002B00F0D38023
S31508002458089E024601F1004386E80C000B46024630
S31508002468D4E90001FDF790FE009B002B0BDD4CAD6F
S315080024780124F5E80223FDF789FE009B0134A342EF
S31508002488F7DA039B13B101F100431946089BC3E920
S315080024980201099B03F007000DF51B7DBDE8F08FC7
S315080024A8069D083500200021254475E90223FDF715
S315080024B86DFEAC42F9D1039B13B101F100431946ED
S315080024C8089BC3E90001099B03F007000DF51B7D6E
S315080024D8BDE8F08F00260027EAE80267DA4509F121
S315080024E808097FF4F2AC0EE5009B002B08F10108F9
S315080024F8C8BF02253FF799AD32463B4600206149D9
S31508002508FDF742FE022506460F46F7E50026002790
S31508002518EAE6069B002B27DD0024069B012B3FF4E1
S31508002528BFAD022B09D1009B5A1E0EAB0EA953F854
S315080025382230C3F3150341F82230022D7FF4DEADAD
S3150800254832463B4600204F49FDF71EFE06460F4613
S31508002558002C3FF4D3ADC3E50099013399427FF4C3
S315080025686EAD069B002BD8DC022D7FF4C7AD32462C
S315080025783B4600204349FDF707FE06460F46BDE5DC
S315080025880123E8E5069B0395584247EC106BCDF8FE
S31508002598248000F0E1F955EC104B00223A4B10EE76
S315080025A8100A2946FEF74EFA002841D00022374B72
S315080025B820462946FDF7A0FFFEF758FA0646FDF716
S315080025C831FF0022304BFDF797FF02460B4620469F
S315080025D82946FDF7D9FDFEF749FA0099069B0A46EA
S315080025E81833013206930B460EA9009241F82300C8
S315080025F841F8226022E6089B0246C3E900010B4619
S31508002608D4E90001FDF7C0FD009B002B3FF72FAF6B
S31508002618089BC3E902013CE7D4E90067D4E9022329
S31508002628089DC5E90401C5E90067C5E90223F9E675
S3150800263829462046FEF71AFA009A0EA941F82200FA
S31508002648FCE54AAC00200021D7E6A49B032B3FF6FD
S31508002658E9AE01A252F823F07F260008772600087B
S31508002668772600084B26000801200023EDE4002001
S3150800267800214AACE8E6002000211CE70A9BDB009B
S31508002688009340E40000F03F000070410000703EEF
S315080026982DE9F04F55EC104B2DED028BB0EE418A23
S315080026A8F0EE618A25F00043B3F1795F83B082467C
S315080026B807DA10EE100A2946FEF7D8F9002800F0BE
S315080026C88E8022462B4620462946FDF715FF0646E4
S315080026D80F4602460B4620462946FDF70DFF47A337
S315080026E8D3E900238046894630463946FDF704FF74
S315080026F844A3D3E90023FDF747FD32463B46FDF7D9
S31508002708FBFE42A3D3E90023FDF740FD32463B46CC
S31508002718FDF7F2FE3FA3D3E90023FDF735FD324660
S315080027283B46FDF7E9FE3DA3D3E90023FDF72EFD59
S31508002738CDE90001BAF1000F37D000222E4B51EC33
S31508002748180BFDF7D9FEDDE9002382468B4640467D
S315080027584946FDF7D1FE02460B4650465946FDF74F
S3150800276813FD32463B46FDF7C7FE53EC182BFDF71B
S315080027780BFD1FA3D3E9002306460F4640464946E4
S31508002788FDF7BAFE02460B4630463946FDF7FEFC0B
S3150800279802460B4620462946FDF7F6FC41EC100B87
S315080027A803B0BDEC028BBDE8F08F02460B463046F7
S315080027B83946FDF7A1FE0EA3D3E90023FDF7E4FC8D
S315080027C842464B46FDF798FE22462B46FDF7DEFCA9
S315080027D841EC100B03B0BDEC028BBDE8F08F45EC5D
S315080027E8104B03B0BDEC028BBDE8F08FAFF3008049
S315080027F8495555555555C53F0000E03F7CD5CF5A34
S315080028083AD9E53DEB9C2B8AE6E55A3E7DFEB1575B
S31508002818E31DC73ED561C119A0012A3FA6F81011C4
S315080028281111813F53EC102B23F0004343EC102B76
S31508002838704700BF0000000051EC100BC1F30A53A3
S315080028482DE9F041A3F2FF35132D0C460F4610EE7D
S31508002858106A1DDC002D43DB3D4B43FA05F801EAF7
S315080028680803034319D038A3D3E90023FDF78EFCE0
S3150800287800220023FEF7F0F820B1002C49DB27EAEE
S31508002888080400262346324643EC102BBDE8F0819F
S31508002898332D06DDB5F5806F32D041EC100BBDE857
S315080028A8F081A3F213434FF0FF3828FA03F810EA29
S315080028B8080FF2D024A3D3E90023FDF767FC00220A
S315080028C80023FEF7C9F80028DCD0002C27DB3C4695
S315080028D826EA08062346324643EC102BBDE8F08163
S315080028E819A3D3E90023FDF751FC00220023FEF7BC
S315080028F8B3F80028C6D0002C1CDB00263446C1E7EE
S3150800290810EE102A0B46FDF741FC41EC100BBDE80A
S31508002918F0814FF4801343FA05F52F44AFE7142DD9
S3150800292810D00123C5F1340503FA05F5AE1928BFF9
S31508002938FF18CCE724F00042064B324318BF1C4662
S3150800294800269FE70137C2E79C7500883CE4377E76
S31508002958FFFF0F000000F0BF53EC102B70B5C3F350
S315080029680A541946054614BB23F0004111432AD0D8
S3150800297819460022384B394E10EE100AFDF7BCFDF1
S31508002988B54202460B461FDBC1F30A54363C2C44B3
S3150800299840F2FE7084421FDC002C2DDD21F0FF4139
S315080029A821F4E00141EA045343EC102B70BD40F2D0
S315080029B8FF708442EBD110EE100A1946FDF7E6FBC4
S315080029C841EC100B70BD70BD1FA3D3E90023FDF7BA
S315080029D893FD41EC100B70BD43EC112B9FED1C0BBE
S315080029E800F040F81AA3D3E9002351EC100BFDF7C1
S315080029F883FD41EC100B70BD14F1350F13DA4CF258
S31508002A0850318D4243EC112BE8DC9FED0F0B00F09B
S31508002A1829F80DA3D3E9002351EC100BFDF76CFD3B
S31508002A2841EC100B70BD21F0FF4121F4E00136346A
S31508002A3841EA0453104619460022094BFDF75CFD86
S31508002A4841EC100B70BD00BF59F3F8C21F6EA50103
S31508002A589C7500883CE4377E00005043B03CFFFF75
S31508002A680000903C53EC102B11EE900A23F000411D
S31508002A7800F0004041EA000343EC102B704700BF02
S31508002A88FB21F93FFB2109407CD91240FB2119405B
S31508002A987A6A1F407CD92240BBFD2540FB21294084
S31508002AA83A462C407A6A2F405C4731407CD93240F6
S31508002AB89C6B3440BBFD3540DB8F3740FB213940E2
S31508002AC81BB43A403A463C405AD83D407A6A3F4099
S31508002AD84C7E40405C4741406C1042407CD942409D
S31508002AE88CA243409C6B4440AC344540BBFD4540F2
S31508002AF8CBC64640DB8F4740EB584840FB21494048
S31508002B0883F9A200444E6E00FC291500D157270008
S31508002B18DD34F50062DBC0003C999500419043001E
S31508002B286351FE00BBDEAB00B761C5003A6E2400F0
S31508002B38D24D42004906E00009EA2E001C92D1004F
S31508002B48EB1DFE0029B11C00E83EA700F5358200FA
S31508002B5844BB2E009CE98400B4267000417E5F00C1
S31508002B68D6913900538339009CF439008B5F840069
S31508002B7828F9BD00F81F3B00DEFF97000F980500EF
S31508002B88112FEF000A5A8B006D1F6D00CF7E360095
S31508002B9809CB2700464FB7009E663F002DEA5F001F
S31508002BA8BA277500E5EBC7003D7BF100F739070042
S31508002BB892528A00FB6BEA001FB15F00085D8D0020
S31508002BC8300356007BFC4600F0AB6B0020BCCF00F8
S31508002BD836F49A00E3A91D005E619100081BE60019
S31508002BE885996500A0145F008D40680080D8FF00AD
S31508002BF827734D0006063100CA561500C9A8730082
S31508002C087BE260006B8CC00000000040FB21F93FA6
S31508002C18000000002D44743E000000809846F83CE9
S31508002C280000006051CC783B00000080831BF03917
S31508002C380000004020257A38000000802282E3360A
S31508002C48000000001DF369350200000003000000BB
S30D08002C5804000000060000005C
S7050800018869
