:020000040800F2
:10000000000002207105000889010008970100081E
:100010009D010008A3010008A901000800000000DC
:10002000000000000000000000000000AF01000818
:10003000BD01000800000000CB010008D901000844
:10004000B5050008B5050008B5050008B5050008A8
:10005000B5050008B5050008B5050008B505000898
:10006000B5050008B5050008B5050008B505000888
:10007000B5050008B5050008B5050008B505000878
:10008000B5050008B5050008B5050008B505000868
:10009000B5050008B5050008B5050008B505000858
:1000A000B5050008B5050008B5050008B505000848
:1000B000B5050008B5050008B5050008B505000838
:1000C000B5050008B5050008B5050008B505000828
:1000D000B5050008B5050008B5050008B505000818
:1000E000B5050008B5050008B5050008B505000808
:1000F000B5050008B5050008B5050008B5050008F8
:10010000B5050008B5050008B5050008B5050008E7
:10011000B5050008B5050008B5050008B5050008D7
:10012000B5050008B5050008B5050008B5050008C7
:10013000B5050008B5050008B5050008B5050008B7
:10014000B5050008B5050008B5050008B5050008A7
:10015000B5050008B5050008B5050008B505000897
:10016000B5050008B5050008B5050008B505000887
:10017000B5050008B5050008B5050008B505000877
:08018000B5050008B5050008F3
:1001880080B400AF00BFBD465DF8047B704780B403
:1001980000AFFEE780B400AFFEE780B400AFFEE733
:1001A80080B400AFFEE780B400AF00BFBD465DF885
:1001B800047B704780B400AF00BFBD465DF8047B88
:1001C800704780B400AF00BFBD465DF8047B704740
:1001D80080B400AF00BFBD465DF8047B70470000E7
:1001E80080B500AF164BD3F88830154A43F4700336
:1001F800C2F88830134B1B68124A43F0010313609E
:10020800104B00229A600F4B1B680E4A23F0847330
:1002180023F4803313600B4B0B4A5A60094B1B685D
:10022800084A23F480231360064B0022DA6000F0AA
:100238000DF8034B4FF000629A6000BF80BD00BF0D
:1002480000ED00E0003802401030002480B483B094
:1002580000AF00237B6000233B60364B1B68354AA8
:1002680043F480331360334B1B6803F400333B6063
:100278007B6801337B603B68002B03D17B68B3F557
:10028800A04FF0D12B4B1B6803F40033002B02D096
:1002980001233B6001E000233B603B68012B42D116
:1002A800244B1B6C234A43F080531364224B1B6876
:1002B800214A43F4404313601E4B1E4A9B689360D7
:1002C8001C4B9B681B4A43F400439360194B9B6883
:1002D800184A43F4A0539360164B184A5A60154BBA
:1002E8001B68144A43F08073136000BF114B1B68EE
:1002F80003F00073002BF9D0114B40F205721A601D
:100308000C4B9B680B4A23F003039360094B9B68D3
:10031800084A43F00203936000BF064B9B6803F052
:100328000C03082BF9D100BF0C37BD465DF8047BE0
:10033800704700BF00380240007000400854400772
:10034800003C024080B582B000AF0121082000F0D7
:100358002FF94FF428433B6001233B710023BB7105
:1003680003237B710023FB713B461946034800F0C9
:100378001BFA00BF0837BD4680BD00BF000C024015
:1003880080B582B000AF0121012000F011F94FF4CF
:10039800E0633B6001233B710023BB7103237B7146
:1003A8000023FB713B461946034800F0FDF900BFE6
:1003B8000837BD4680BD00BF0000024080B582B04E
:1003C80000AF0121102000F0F3F801233B60002367
:1003D8003B710023BB7103237B710123FB713B46F7
:1003E8001946034800F0E0F900BF0837BD4680BD54
:1003F8000010024080B584B000AF0121012000F058
:10040800F7F80E4BBB605323BB800023BB8100234E
:10041800FB803B1D19464FF0804000F009F901228E
:1004280001214FF0804000F09BF901214FF08040FE
:1004380000F076F900BF1037BD4680BD3F420F007F
:1004480090B58DB000AFFFF7B9FFFFF7D3FFFFF707
:1004580079FFFFF795FF3D4A07F1140307CA83E8C0
:1004680007003B4B3C1D0FCB84E80F000023FB62C9
:100478000023BB6201237B6200233B624FF0804074
:1004880000F042F90346002B49D1FB6A9B0007F1B3
:100498003002134453F81C3C9BB219462D4800F017
:1004A8003AFABB6A9B0007F13002134453F82C3C1C
:1004B8009BB21946284800F02EFAFA6A7B6A134460
:1004C800DA1C264B83FB0231D317C91A0B465B0093
:1004D8000B44D31AFB62BA6A7B6A134404335A4248
:1004E80003F0030302F0030258BF5342BB62FB6AE6
:1004F8009B0007F13002134453F81C3C9BB2194689
:10050800144800F0F9F9BB6A9B0007F13002134464
:1005180053F82C3C9BB219460F4800F0EDF9012125
:100528000F4800F0CFF90346002B07D13B6A002B98
:1005380004D17B6A5B427B620A4B3B623B6A002BBD
:100548009CDD3B6A013B3B6298E700BF3C09000821
:100558004809000800000240000C02405655555555
:1005680000100240404B4C00002103E00A4B5B584E
:100578004350043109480A4B42189A42F6D3094AB3
:1005880002E0002342F8043B074B9A42F9D3FFF7F5
:1005980027FEFFF755FF70475809000800000020A4
:1005A800000000200000002000000020FEE70000FE
:1005B80080B483B000AF78600B46FB70FB78002BEB
:1005C80006D00A49094B1A6B7B6813430B6306E094
:1005D8000649064B1A6B7B68DB4313400B6300BF6D
:1005E8000C37BD465DF8047B704700BF00380240F9
:1005F80080B483B000AF78600B46FB70FB78002BAB
:1006080006D00A49094B1A6C7B6813430B6406E051
:100618000649064B1A6C7B68DB4313400B6400BF2A
:100628000C37BD465DF8047B704700BF00380240B8
:1006380080B485B000AF786039600023FB817B68A7
:100648001B88FB817B68294A934213D07B68284A20
:1006580093420FD07B68B3F1804F0BD07B68254A5B
:10066800934207D07B68244A934203D07B68234A8D
:10067800934208D1FB8923F07003FB813B685A88B9
:10068800FB891343FB817B681D4A93420CD07B682E
:100698001C4A934208D0FB8923F44073FB813B68D2
:1006A8001A89FB891343FB817B68FA891A803B68A6
:1006B8005A687B68DA623B681A887B681A857B68A7
:1006C8000A4A934203D07B68094A934204D13B68A3
:1006D8009B7A9AB27B681A867B6801229A8200BF4D
:1006E8001437BD465DF8047B704700BF0000014029
:1006F800000401400004004000080040000C0040D5
:10070800001000400014004080B483B000AF78604F
:100718007B685B6A18460C37BD465DF8047B7047FA
:1007280080B483B000AF78600B46FB70FB78002B79
:1007380008D07B681B889BB243F001039AB27B68A0
:100748001A8007E07B681B889BB223F001039AB2EA
:100758007B681A8000BF0C37BD465DF8047B704784
:1007680080B483B000AF78600B467B8013467B7003
:100778007B78002B08D07B689B899AB27B881343CF
:100788009AB27B689A8109E07B689B899AB27B88D8
:10079800DB439BB213409AB27B689A8100BF0C3747
:1007A800BD465DF8047B704780B487B000AF7860C1
:1007B800396000237B6100233B610023FB60002339
:1007C8007B6176E001227B6902FA03F33B613B68B7
:1007D8001A683B691340FB60FA683B699A4265D125
:1007E8007B681A687B695B00032101FA03F3DB432A
:1007F8001A407B681A607B681A683B681B7919463F
:100808007B695B0001FA03F31A437B681A603B6853
:100818001B79012B03D03B681B79022B2ED17B68F7
:100828009A687B695B00032101FA03F3DB431A40F2
:100838007B689A607B689A683B685B7919467B6934
:100848005B0001FA03F31A437B689A607B685A6875
:100858007B699BB2194601238B40DB431A407B68B6
:100868005A607B685B683A68927911467A6992B2F5
:1008780001FA02F292B21A437B685A607B68DA681E
:100888007B699BB25B00032101FA03F3DB431A4047
:100898007B68DA607B68DA683B68DB7919467B69D4
:1008A8005B0001FA03F31A437B68DA607B69013362
:1008B8007B617B690F2B85D900BF1C37BD465DF86E
:1008C800047B704780B485B000AF78600B467B80AE
:1008D8000023FB737B681A697B881340002B02D0C6
:1008E8000123FB7301E00023FB73FB7B18461437DD
:1008F800BD465DF8047B704780B483B000AF786074
:100908000B467B807B687A881A8300BF0C37BD460C
:100918005DF8047B704780B483B000AF78600B4605
:100928007B807B687A885A8300BF0C37BD465DF8A8
:10093800047B7047FFFEFFFFFFFDFFFFFFFBFFFF8C
:1009480000100000002000000040000000800000AF
:040000050800018866
:00000001FF
