S00C00006D61696E2E7372656373
S31508000000000002206D050008890100089701000814
S315080000109D010008A3010008A901000800000000CE
S31508000020000000000000000000000000AF0100080A
S31508000030BD01000800000000CB010008D901000836
S31508000040B1050008B1050008B1050008B1050008AA
S31508000050B1050008B105000819050008B105000832
S31508000060B1050008B1050008B1050008B10500088A
S31508000070B1050008B1050008B1050008B10500087A
S31508000080B1050008B1050008B1050008B10500086A
S31508000090B1050008B1050008B1050008B10500085A
S315080000A0B1050008B1050008B1050008B10500084A
S315080000B075040008B1050008B1050008B105000877
S315080000C0B1050008B1050008B1050008B10500082A
S315080000D0B1050008B1050008B1050008B10500081A
S315080000E0B1050008B1050008B1050008B10500080A
S315080000F0B1050008B1050008B1050008B1050008FA
S31508000100B1050008B1050008B1050008B1050008E9
S31508000110B1050008B1050008B1050008B1050008D9
S31508000120B1050008B1050008B1050008B1050008C9
S31508000130B1050008B1050008B1050008B1050008B9
S31508000140B1050008B1050008B1050008B1050008A9
S31508000150B1050008B1050008B1050008B105000899
S31508000160B1050008B1050008B1050008B105000889
S31508000170B1050008B1050008B1050008B105000879
S30D08000180B1050008B1050008ED
S3150800018880B400AF00BFBD465DF8047B704780B4F5
S3150800019800AFFEE780B400AFFEE780B400AFFEE725
S315080001A880B400AFFEE780B400AF00BFBD465DF877
S315080001B8047B704780B400AF00BFBD465DF8047B7A
S315080001C8704780B400AF00BFBD465DF8047B704732
S315080001D880B400AF00BFBD465DF8047B70470000D9
S315080001E880B500AF164BD3F88830154A43F4700328
S315080001F8C2F88830134B1B68124A43F00103136090
S31508000208104B00229A600F4B1B680E4A23F0847322
S3150800021823F4803313600B4B0B4A5A60094B1B684F
S31508000228084A23F480231360064B0022DA6000F09C
S315080002380DF8034B4FF000629A6000BF80BD00BFFF
S3150800024800ED00E0003802401030002480B483B086
S3150800025800AF00237B6000233B60364B1B68354A9A
S3150800026843F480331360334B1B6803F400333B6055
S315080002787B6801337B603B68002B03D17B68B3F549
S31508000288A04FF0D12B4B1B6803F40033002B02D088
S3150800029801233B6001E000233B603B68012B42D108
S315080002A8244B1B6C234A43F080531364224B1B6868
S315080002B8214A43F4404313601E4B1E4A9B689360C9
S315080002C81C4B9B681B4A43F400439360194B9B6875
S315080002D8184A43F4A0539360164B184A5A60154BAC
S315080002E81B68144A43F08073136000BF114B1B68E0
S315080002F803F00073002BF9D0114B40F205721A600F
S315080003080C4B9B680B4A23F003039360094B9B68C5
S31508000318084A43F00203936000BF064B9B6803F044
S315080003280C03082BF9D100BF0C37BD465DF8047BD2
S31508000338704700BF00380240007000400854400764
S31508000348003C024080B582B000AF0121012000F0D0
S315080003582BFA4FF4E0633B6001233B710023BB7122
S3150800036802237B710023FB713B461946064800F0B9
S3150800037884FB4FF4E061044800F00DFC002318469E
S315080003880837BD4680BD00BF0000024080B586B06C
S3150800039800AF0121102000F007FA03233B61002370
S315080003A83B750023BB7503237B750123FB7507F192
S315080003B810031946144800F060FB01214FF48040E9
S315080003C800F032FA0021042000F04EFA0123BB603F
S315080003D800233B7308237B730123BB7307F10803C8
S315080003E8184600F045F906233B7101237B71012362
S315080003F8BB710123FB713B1D184600F0D7F8002393
S3150800040818461837BD4680BD0010024080B584B02E
S3150800041800AF0121012000F0E7F95423BB8000232F
S31508000428FB80114BBB600023BB810023BB733B1DBC
S3150800043819464FF0804000F059FA1C233B700023F8
S315080004487B700123BB700123FB703B46184600F0FE
S31508000458ADF801214FF0804000F0B4FA00231846A1
S315080004681037BD4680BD00BF40420F0080B500AFBB
S3150800047801214FF0804000F0C5FA0346002B3AD018
S3150800048801214FF0804000F0E7FA1C4B93F9003041
S315080004981A461B4B33F912309BB21946194800F015
S315080004A87AFB164B93F900301A46174B93F9003026
S315080004B8D11A164B83FB0132CB17D21A13465B00A7
S315080004C81344CA1A0332114B83FB0231D317C91ACC
S315080004D80B465B000B44D11A4AB2084B1A70074BF5
S315080004E893F900301A46064B33F912309BB219466F
S315080004F8044800F05FFB00BF80BD00BF080000206D
S3150800050800000020000002400900002056555555F5
S3150800051880B500AF012000F01DF9012000F034F97C
S31508000528054B93F90030DBB25B42DBB25AB2024B99
S315080005381A7000BF80BD00BF0900002080B500AF53
S31508000548064B00221A70064B01221A70FFF7FAFEAC
S31508000558FFF71CFFFFF75AFFFEE700BF0800002059
S3150800056809000020002103E00A4B5B584350043178
S3150800057809480A4B42189A42F6D3094A02E0002368
S3150800058842F8043B074B9A42F9D3FFF729FEFFF7CF
S31508000598D5FF7047DC0B0008000000200800002083
S315080005A80800002008000020FEE7000080B485B097
S315080005B800AF78600023FB730023BB730F237B739C
S315080005C87B68DB78002B39D0274BDB68DB431B0AB3
S315080005D8DBB203F00703FB73FB7BC3F10403BB73AE
S315080005E87A7BFB7B42FA03F37B737B685B781A4654
S315080005F8BB7B02FA03F3FB737B689A787B7B134011
S31508000608DAB2FB7B1343FB73FB7B1B01FB73174AAD
S315080006187B681B781344FA7B83F80023134A7B68A4
S315080006281B785B09DBB218467B681B7803F01F0347
S31508000638012101FA03F342F820300FE00B497B68E1
S315080006481B785B09DBB218467B681B7803F01F0327
S3150800065801229A4000F1200341F8232000BF1437ED
S31508000668BD465DF8047B704700ED00E000E100E058
S3150800067880B485B000AF78600023FB60344BFB601C
S315080006887B689B79002B4FD03149314B1A687B68B8
S315080006981B68DB4313400B602D492D4B5A687B6852
S315080006A81B68DB4313404B607B681B791A46FB685B
S315080006B81344FB60FB68FA6811687A6812680A438B
S315080006C81A602349224B9A687B681B68DB431340E8
S315080006D88B601F491E4BDA687B681B68DB4313402F
S315080006E8CB607B685B79102B0ED11949184B9A6831
S315080006F87B681B6813438B601549154BDA687B685A
S315080007081B681343CB601DE0114BFB607B685B7964
S315080007181A46FB681344FB60FB68FA6811687A682E
S3150800072812680A431A600DE07B681B791A46FB684B
S315080007381344FB60FB68FA6811687A681268D24342
S315080007480A401A6000BF1437BD465DF8047B704737
S31508000758003C014080B485B000AF78600023FB7385
S31508000768084B5A697B681340002B02D00123FB7398
S3150800077801E00023FB73FB7B18461437BD465DF87A
S31508000788047B7047003C014080B483B000AF7860B2
S31508000798044A7B68536100BF0C37BD465DF8047B85
S315080007A8704700BF003C014080B483B000AF786052
S315080007B80B46FB70FB78002B06D00A49094B1A6BC7
S315080007C87B6813430B6306E00649064B1A6B7B687E
S315080007D8DB4313400B6300BF0C37BD465DF8047B4B
S315080007E8704700BF0038024080B483B000AF786015
S315080007F80B46FB70FB78002B06D00A49094B1A6C86
S315080008087B6813430B6406E00649064B1A6C7B683B
S31508000818DB4313400B6400BF0C37BD465DF8047B09
S31508000828704700BF0038024080B483B000AF7860D4
S315080008380B46FB70FB78002B06D00A49094B5A6C05
S315080008487B6813434B6406E00649064B5A6C7B687B
S31508000858DB4313404B6400BF0C37BD465DF8047B89
S31508000868704700BF0038024090B484B000AF034612
S315080008780A46FB711346BB710023FB60BB7903F07C
S3150800088803039B000F2202FA03F3FB601649BB79A0
S315080008989B08DBB21846144ABB799B08DBB20233BD
S315080008A852F82320FB68DB431A40831C41F82320AF
S315080008B80D48BB799B08DBB21C460B4ABB799B08DB
S315080008C8DBB2023352F82320F979BB7903F0030324
S315080008D89B0001FA03F31A43A31C40F8232000BF20
S315080008E81037BD4690BC70470038014080B485B0C3
S315080008F800AF786039600023FB817B681B88FB8121
S315080009087B68294A934213D07B68284A93420FD0BA
S315080009187B68B3F1804F0BD07B68254A934207D092
S315080009287B68244A934203D07B68234A934208D1BA
S31508000938FB8923F07003FB813B685A88FB891343BC
S31508000948FB817B681D4A93420CD07B681C4A9342FC
S3150800095808D0FB8923F44073FB813B681A89FB8915
S315080009681343FB817B68FA891A803B685A687B6857
S31508000978DA623B681A887B681A857B680A4A934252
S3150800098803D07B68094A934204D13B689B7A9AB29A
S315080009987B681A867B6801229A8200BF1437BD468F
S315080009A85DF8047B704700BF000001400004014061
S315080009B80004004000080040000C004000100040F9
S315080009C80014004080B483B000AF78600B46FB7013
S315080009D8FB78002B08D07B681B889BB243F0010381
S315080009E89AB27B681A8007E07B681B889BB223F05B
S315080009F801039AB27B681A8000BF0C37BD465DF8BA
S31508000A08047B704780B485B000AF78600B467B805E
S31508000A180023FB730023BB8100237B817B681B8A29
S31508000A289AB27B881340BB817B689B899AB27B887C
S31508000A3813407B81BB89002B05D07B89002B02D00C
S31508000A480123FB7301E00023FB73FB7B184614376D
S31508000A58BD465DF8047B704780B483B000AF786004
S31508000A680B467B807B88DB439AB27B681A8200BF79
S31508000A780C37BD465DF8047B704780B487B000AF75
S31508000A887860396000237B6100233B610023FB60A3
S31508000A9800237B6176E001227B6902FA03F33B6156
S31508000AA83B681A683B691340FB60FA683B699A42D7
S31508000AB865D17B681A687B695B00032101FA03F331
S31508000AC8DB431A407B681A607B681A683B681B799F
S31508000AD819467B695B0001FA03F31A437B681A60B7
S31508000AE83B681B79012B03D03B681B79022B2ED157
S31508000AF87B689A687B695B00032101FA03F3DB4389
S31508000B081A407B689A607B689A683B685B791946DD
S31508000B187B695B0001FA03F31A437B689A607B6872
S31508000B285A687B699BB2194601238B40DB431A40F6
S31508000B387B685A607B685B683A68927911467A6975
S31508000B4892B201FA02F292B21A437B685A607B683B
S31508000B58DA687B699BB25B00032101FA03F3DB437E
S31508000B681A407B68DA607B68DA683B68DB7919467D
S31508000B787B695B0001FA03F31A437B68DA607B69D1
S31508000B8801337B617B690F2B85D900BF1C37BD46AE
S31508000B985DF8047B704780B483B000AF78600B4675
S31508000BA87B807B687A881A8300BF0C37BD465DF858
S31508000BB8047B704780B483B000AF78600B467B80AF
S31508000BC87B687A885A8300BF0C37BD465DF8047B74
S30908000BD87047000054
S30D08000BDC0001000200040000FC
S7050800018869
